:0300000002000EED
:10000B0002010E787FE4F6D8FD75813B02005502A4
:10001B000203E493A3F8E493A34003F68001F208F0
:10002B00DFF48029E493A3F85407240CC8C333C42A
:10003B00540F4420C8834004F456800146F6DFE495
:10004B00800B0102040810204080900228E47E01FE
:10005B009360BCA3FF543F30E509541FFEE493A308
:10006B0060010ECF54C025E060A840B8E493A3FA1A
:10007B00E493A3F8E493A3C8C582C8CAC583CAF0A6
:10008B00A3C8C582C8CAC583CADFE9DEE780BE8BB9
:10009B00398A3A893BE4FEEE75F003A42422F886F4
:1000AB000308E6FA08E64A4B7004AF068009BE0364
:1000BB0002C3220EBE04E0E4FEEED39F5043EE7566
:1000CB00F003A42422F8860308E6FA08E6F9E539DA
:1000DB00853A83853B826B7008E965827003EA651C
:1000EB00837002C322EEB50715AA3AA93B75F0033C
:1000FB00A42422F8A63908A60208A601D3220E8052
:10010B00B8C322C0E0C0F0C083C082C0D075D0009D
:10011B00C000C001C002C003C004C005C006C007B8
:10012B00758A66758CFC753700E53775F003A4246A
:10013B0022F8860308E6FA08E64A4B6012E53775A3
:10014B00F003A42422F808E6FA08E6F91201AB053D
:10015B0037E537C3940440D1D007D006D005D0047F
:10016B00D003D002D001D000D0D0D082D083D0F039
:10017B00D0E032BB010CE58229F582E5833AF583A9
:10018B00E0225006E92582F8E622BBFE06E925822D
:10019B00F8E222E58229F582E5833AF583E493229E
:1001AB008A838982E473D2AFD2A95389F043890140
:1001BB00758A66758CFCD28CE4FFEF75F003A42472
:1001CB0022F876000876000876000FBF04EC227543
:1001DB0080FFE5367004D2908002C290C292D29218
:1001EB00C291D291742E2536F8E6F4F5800536E5EA
:1001FB0036B40803E4F536221201B1120262E4F5BB
:10020B003874082538F8E6FF1202787FC87E001292
:10021B0002480538E538C3941A40E680E101360000
:10022B001A08F80AECAFEC8AF80010F997F188AAD3
:10023B00FFAA8800140AF59292F50A1400D3EF94E2
:10024B0000EE94004010EF1F70011E007D027CC772
:10025B00DCFEDDFC80E722C2B5C2B47F08782EE459
:10026B00F608DFFC7BFF7A0179DA02009A7E0774CD
:10027B002D2EF8E6FD742E2EF8A605DEF28F2E221B
:00000001FF
