:100000000201F175A0FE20A40D7F0A7E0012035D9F
:1000100030A4FD7F062220A50D7F0A7E0012035D1D
:1000200030A5FD7F072220A60D7F0A7E0012035D0A
:1000300030A6FD7F082220A70D7F0A7E0012035DF7
:1000400030A7FD7F092275A0FD20A40D7F0A7E0048
:1000500012035D30A4FD7F0A2220A50D7F0A7E00D9
:1000600012035D30A5FD7F0B2220A60D7F0A7E00C6
:1000700012035D30A6FD7F0C2220A70D7F0A7E00B3
:1000800012035D30A7FD7F0D2275A0FB20A40D7F1C
:100090000A7E0012035D30A4FD7F0E2220A50D7F95
:1000A0000A7E0012035D30A5FD7F0F2220A60D7F82
:1000B0000A7E0012035D30A6FD7F102220A70D7F6F
:1000C0000A7E0012035D30A7FD7F112275A0F72084
:1000D000A40D7F0A7E0012035D30A4FD7F12222052
:1000E000A50D7F0A7E0012035D30A5FD7F1322203F
:1000F000A60D7F0A7E0012035D30A6FD7F1422202C
:10010000A70D7F0A7E0012035D30A7FD7F15227FB9
:10011000002275F008758200EF2FFFEE33FECD331D
:10012000CDCC33CCC58233C5829BED9AEC99E58268
:1001300098400CF582EE9BFEED9AFDEC99FC0FD5F4
:10014000F0D6E4CEFBE4CDFAE4CCF9A88222B800E4
:10015000C1B90059BA002DEC8BF084CFCECDFCE5AF
:10016000F0CBF97818EF2FFFEE33FEED33FDEC33D3
:10017000FCEB33FB10D703994004EB99FB0FD8E558
:10018000E4F9FA227818EF2FFFEE33FEED33FDECA1
:1001900033FCC933C910D7059BE99A4007EC9BFC97
:1001A000E99AF90FD8E0E4C9FAE4CCFB2275F01023
:1001B000EF2FFFEE33FEED33FDCC33CCC833C81048
:1001C000D7079BEC9AE899400AED9BFDEC9AFCE876
:1001D00099F80FD5F0DAE4CDFBE4CCFAE4C8F922C3
:1001E000EB9FF5F0EA9E42F0E99D42F0E89C45F075
:1001F00022787FE4F6D8FD75811F0202380203776A
:10020000E493A3F8E493A34003F68001F208DFF43B
:100210008029E493A3F85407240CC8C333C4540FB3
:100220004420C8834004F456800146F6DFE4800B86
:10023000010204081020408090038CE47E0193604A
:10024000BCA3FF543F30E509541FFEE493A36001B3
:100250000ECF54C025E060A840B8E493A3FAE4931D
:10026000A3F8E493A3C8C582C8CAC583CAF0A3C8CB
:10027000C582C8CAC583CADFE9DEE780BE8F1D8E8E
:100280001C8D1B8C1AE4FFF51E751F077E0878086D
:10029000E4F608DEFCE4FFFEFDFCAB1DAA1CA91B76
:1002A000A81AC31201E07008FDFC7F07FE02033BA1
:1002B000E4FFFEFDFCAB1DAA1CA91BA81AC312017A
:1002C000E06041E47B0AFAF9F8AF1DAE1CAD1BAC4F
:1002D0001A12014E74102BF8E6FF7408251FF8A6B9
:1002E00007AF1DAE1CAD1BAC1AE47B0AFAF9F8127D
:1002F000014E8F1D8E1C8D1B8C1AE51F151F70B0B3
:10030000151E80AC22E4F51AF51BF580F51AF51BD5
:10031000E51B2401FFE4351AFEAD1BAC1A12033BAA
:100320007F017E0012035D051BE51B7002051AD3D9
:100330009407E51A6480948040D622E4F5805390B7
:10034000C7EF24FFFFEE34FFFEEF7803C333CE3355
:10035000CED8F9429074082DF8E6F58022D3EF94B8
:1003600000EE94004010EF1F70011E007D027CC75C
:10037000DCFEDDFC80E722120399120003EF600728
:10038000E4FCFDFE12027D12030580EE0A103F061A
:0E0390005B4F666D7D077F6F00C2B6C2B42260
:00000001FF
