:080000000202BCC2B5C2B42229
:10000B000201ABE709F608DFFA8046E709F208DFE1
:10001B00FA803E88828C83E709F0A3DFFA8032E313
:10002B0009F608DFFA8078E309F208DFFA807088B6
:10003B00828C83E309F0A3DFFA806489828A83E0F0
:10004B00A3F608DFFA805889828A83E0A3F208DFDF
:10005B00FA804C80D280FA80C680D4806980F2808E
:10006B0033801080A680EA809A80A880DA80E280B4
:10007B00CA803389828A83ECFAE493A3C8C582C809
:10008B00CCC583CCF0A3C8C582C8CCC583CCDFE973
:10009B00DEE7800D89828A83E493A3F608DFF9EC0F
:1000AB00FAA9F0EDFB2289828A83ECFAE0A3C8C59A
:1000BB0082C8CCC583CCF0A3C8C582C8CCC583CCC1
:1000CB00DFEADEE880DB89828A83E493A3F208DF30
:1000DB00F980CC88F0EF60010E4E60C388F0ED2400
:1000EB0002B4040050B9F582EB2402B4040050AF03
:1000FB00232345822390005E73BB010CE58229F517
:10010B0082E5833AF583E0225006E92582F8E62260
:10011B00BBFE06E92582F8E222E58229F582E5831A
:10012B003AF583E493228A838982E4738B1D8A1EBA
:10013B00891FE4FEEE75F003A42408F8860308E695
:10014B00FA08E64A4B7004AF068009BE0302C322CD
:10015B000EBE04E0E4FEEED39F5043EE75F003A415
:10016B002408F8860308E6FA08E6F9E51D851E83E0
:10017B00851F826B7008E965827003EA65837002E4
:10018B00C322EEB50715AA1EA91F75F003A42408F8
:10019B00F8A61D08A60208A601D3220E80B8C3221A
:1001AB00C0E0C0F0C083C082C0D075D000C000C01A
:1001BB0001C002C003C004C005C006C007758A6633
:1001CB00758CFC751400E51475F003A42408F886EF
:1001DB000308E6FA08E64A4B6012E51475F003A42F
:1001EB002408F808E6FA08E6F91201310514E514BB
:1001FB00C3940440D1D007D006D005D004D003D08F
:10020B0002D001D000D0D0D082D083D0F0D0E03259
:10021B0078157C007D007BFF7A0279C87E007F0811
:10022B001200DE1200031202487B007A00791512CD
:10023B00029A7BFF7A02797112013780FED2AFD21C
:10024B00A95389F0438901758A66758CFCD28CE4BD
:10025B00FFEF75F003A42408F87600087600087603
:10026B00000FBF04EC227580FFE51D7004D2908057
:10027B0002C290C292D292C291D2917420251DF8E3
:10028B00E6F4F580051DE51DB40803E4F51D228B8E
:10029B001D8A1E891FE4FFAB1DAA1EA91F8F827525
:1002AB008300120104FE74202FF8A6060FBF08E787
:1002BB0022787FE4F6D8FD75812702021B01020428
:0502CB00081020408036
:00000001FF
