:100000000200D175F008758200EF2FFFEE33FECDB0
:1000100033CDCC33CCC58233C5829BED9AEC99E5C8
:100020008298400CF582EE9BFEED9AFDEC99FC0F58
:10003000D5F0D6E4CEFBE4CDFAE4CCF9A88222B820
:1000400000C1B90059BA002DEC8BF084CFCECDFCA5
:10005000E5F0CBF97818EF2FFFEE33FEED33FDEC32
:1000600033FCEB33FB10D703994004EB99FB0FD81B
:10007000E5E4F9FA227818EF2FFFEE33FEED33FDB9
:10008000EC33FCC933C910D7059BE99A4007EC9BB8
:10009000FCE99AF90FD8E0E4C9FAE4CCFB2275F048
:1000A00010EF2FFFEE33FEED33FDCC33CCC833C859
:1000B00010D7079BEC9AE899400AED9BFDEC9AFC5F
:1000C000E899F80FD5F0DAE4CDFBE4CCFAE4C8F90E
:1000D00022787FE4F6D8FD75811F0201180202899B
:1000E000E493A3F8E493A34003F68001F208DFF45D
:1000F0008029E493A3F85407240CC8C333C4540FD5
:100100004420C8834004F456800146F6DFE4800BA7
:10011000010204081020408090029CE47E0193605C
:10012000BCA3FF543F30E509541FFEE493A36001D4
:100130000ECF54C025E060A840B8E493A3FAE4933E
:10014000A3F8E493A3C8C582C8CAC583CAF0A3C8EC
:10015000C582C8CAC583CADFE9DEE780BE8F1D8EAF
:100160001C8D1B8C1AE4FFF51E751F077E0878088E
:10017000E4F608DEFCAF1DAE1CAD1BAC1AEC4D4E18
:100180004F7008FDFC7F07FE02024DAF1DAE1CAD97
:100190001BAC1AEC4D4E4F6039E47B0AFAF9F812A9
:1001A00001D374102BF8E6FF7408251FF8A607AFDB
:1001B0001DAE1CAD1BAC1AE47B0AFAF9F81201D390
:1001C0008F1D8E1C8D1B8C1AE51F151F70BD151EF3
:1001D00080B922C2D5E830E70FB2D5E4C39BFBE477
:1001E0009AFAE499F9E498F8EC30E717B2D51202DC
:1001F0000912003FE4C39BFBE49AFAE499F9E498FE
:10020000F8800312003F30D50DE4C39FFFE49EFE4B
:10021000E49DFDE49CFC22E4F51AF51BF580F51A3B
:10022000F51BE51B2401FFE4351AFEAD1BAC1A12C9
:10023000024D7F017E0012026F051BE51B70020557
:100240001AD39407E51A6480948040D622E4F5809E
:100250005390C7EF24FFFFEE34FFFEEF7803C33364
:10026000CE33CED8F9429074082DF8E6F58022D32B
:10027000EF9400EE94004010EF1F70011E007D020D
:100280007CC7DCFEDDFC80E7221202A97F4E7E6186
:100290007DBC7C0012015D12021780FB0A103F0634
:0E02A0005B4F666D7D077F6F00C2B6C2B42251
:00000001FF
