:0800000002000E0208000000DE
:10000B0002009A787FE4F6D8FD758109020055024B
:10001B0000E5E493A3F8E493A34003F68001F20810
:10002B00DFF48029E493A3F85407240CC8C333C42A
:10003B00540F4420C8834004F456800146F6DFE495
:10004B00800B0102040810204080900003E47E0125
:10005B009360BCA3FF543F30E509541FFEE493A308
:10006B0060010ECF54C025E060A840B8E493A3FA1A
:10007B00E493A3F8E493A3C8C582C8CAC583CAF0A6
:10008B00A3C8C582C8CAC583CADFE9DEE780BEC084
:10009B00E0C0D075D000C006758A67758CFC050969
:1000AB00E509AE087002050814C394F4EE94014000
:1000BB0008B280750800750900D006D0D0D0E032A8
:1000CB00D3EF9400EE94004010EF1F70011E007DE3
:1000DB00027CC7DCFEDDFC80E7221200FC20EBFD7E
:1000EB007F0A7E001200CB20EBF330EBFDB2B28027
:1000FB00ECD2AFD2A95389F0438909758A67758C05
:06010B00FCD28CC2B222FE
:00000001FF
