:090000000201428A838982E47343
:10000B000200828B158A168917E4FEEE75F003A4A5
:10001B002408F8860308E6FA08E64A4B7004AF0694
:10002B008009BE0302C3220EBE04E0E4FEEED39FA2
:10003B005043EE75F003A42408F8860308E6FA088B
:10004B00E6F9E5158516838517826B7008E96582DD
:10005B007003EA65837002C322EEB50715AA16A9D1
:10006B001775F003A42408F8A61508A60208A60124
:10007B00D3220E80B8C322C0E0C0F0C083C082C0C0
:10008B00D075D000C000C001C002C003C004C005C1
:10009B00C006C007758A66758CFC751400E514756F
:1000AB00F003A42408F8860308E6FA08E64A4B6036
:1000BB0012E51475F003A42408F808E6FA08E6F92B
:1000CB001200030514E514C3940440D1D007D006E5
:1000DB00D005D004D003D002D001D000D0D0D08234
:1000EB00D083D0F0D0E032D2AFD2A95389F043897C
:1000FB0001758A66758CFCD28CE4FFEF75F003A456
:10010B002408F876000876000876000FBF04EC226E
:10011B000519E51970020518C394F4E5189401400C
:10012B0007E4F518F519B280221200F27BFF7A0171
:10013B00791B12000E80FE787FE4F6D8FD758119CD
:03014B000201347A
:00000001FF
